{
  "_format": "hh-sol-artifact-1",
  "contractName": "FarawayNFT",
  "sourceName": "contracts/FarawayNFT.sol",
  "abi": [
    {
      "inputs": [],
      "stateMutability": "nonpayable",
      "type": "constructor"
    },
    {
      "anonymous": false,
      "inputs": [
        {
          "indexed": true,
          "internalType": "address",
          "name": "owner",
          "type": "address"
        },
        {
          "indexed": true,
          "internalType": "address",
          "name": "approved",
          "type": "address"
        },
        {
          "indexed": true,
          "internalType": "uint256",
          "name": "tokenId",
          "type": "uint256"
        }
      ],
      "name": "Approval",
      "type": "event"
    },
    {
      "anonymous": false,
      "inputs": [
        {
          "indexed": true,
          "internalType": "address",
          "name": "owner",
          "type": "address"
        },
        {
          "indexed": true,
          "internalType": "address",
          "name": "operator",
          "type": "address"
        },
        {
          "indexed": false,
          "internalType": "bool",
          "name": "approved",
          "type": "bool"
        }
      ],
      "name": "ApprovalForAll",
      "type": "event"
    },
    {
      "anonymous": false,
      "inputs": [
        {
          "indexed": false,
          "internalType": "address",
          "name": "collection",
          "type": "address"
        },
        {
          "indexed": false,
          "internalType": "string",
          "name": "name",
          "type": "string"
        },
        {
          "indexed": false,
          "internalType": "string",
          "name": "symbol",
          "type": "string"
        }
      ],
      "name": "CollectionCreated",
      "type": "event"
    },
    {
      "anonymous": false,
      "inputs": [
        {
          "indexed": true,
          "internalType": "address",
          "name": "previousOwner",
          "type": "address"
        },
        {
          "indexed": true,
          "internalType": "address",
          "name": "newOwner",
          "type": "address"
        }
      ],
      "name": "OwnershipTransferred",
      "type": "event"
    },
    {
      "anonymous": false,
      "inputs": [
        {
          "indexed": false,
          "internalType": "address",
          "name": "account",
          "type": "address"
        }
      ],
      "name": "Paused",
      "type": "event"
    },
    {
      "anonymous": false,
      "inputs": [
        {
          "indexed": false,
          "internalType": "address",
          "name": "collection",
          "type": "address"
        },
        {
          "indexed": false,
          "internalType": "address",
          "name": "recipient",
          "type": "address"
        },
        {
          "indexed": false,
          "internalType": "uint256",
          "name": "tokenId",
          "type": "uint256"
        },
        {
          "indexed": false,
          "internalType": "string",
          "name": "tokenUri",
          "type": "string"
        }
      ],
      "name": "TokenMinted",
      "type": "event"
    },
    {
      "anonymous": false,
      "inputs": [
        {
          "indexed": true,
          "internalType": "address",
          "name": "from",
          "type": "address"
        },
        {
          "indexed": true,
          "internalType": "address",
          "name": "to",
          "type": "address"
        },
        {
          "indexed": true,
          "internalType": "uint256",
          "name": "tokenId",
          "type": "uint256"
        }
      ],
      "name": "Transfer",
      "type": "event"
    },
    {
      "anonymous": false,
      "inputs": [
        {
          "indexed": false,
          "internalType": "address",
          "name": "account",
          "type": "address"
        }
      ],
      "name": "Unpaused",
      "type": "event"
    },
    {
      "inputs": [
        {
          "internalType": "address",
          "name": "to",
          "type": "address"
        },
        {
          "internalType": "uint256",
          "name": "tokenId",
          "type": "uint256"
        }
      ],
      "name": "approve",
      "outputs": [],
      "stateMutability": "nonpayable",
      "type": "function"
    },
    {
      "inputs": [
        {
          "internalType": "address",
          "name": "owner",
          "type": "address"
        }
      ],
      "name": "balanceOf",
      "outputs": [
        {
          "internalType": "uint256",
          "name": "",
          "type": "uint256"
        }
      ],
      "stateMutability": "view",
      "type": "function"
    },
    {
      "inputs": [
        {
          "internalType": "uint256",
          "name": "tokenId",
          "type": "uint256"
        }
      ],
      "name": "burn",
      "outputs": [],
      "stateMutability": "nonpayable",
      "type": "function"
    },
    {
      "inputs": [
        {
          "internalType": "uint256",
          "name": "tokenId",
          "type": "uint256"
        }
      ],
      "name": "getApproved",
      "outputs": [
        {
          "internalType": "address",
          "name": "",
          "type": "address"
        }
      ],
      "stateMutability": "view",
      "type": "function"
    },
    {
      "inputs": [
        {
          "internalType": "address",
          "name": "owner",
          "type": "address"
        },
        {
          "internalType": "address",
          "name": "operator",
          "type": "address"
        }
      ],
      "name": "isApprovedForAll",
      "outputs": [
        {
          "internalType": "bool",
          "name": "",
          "type": "bool"
        }
      ],
      "stateMutability": "view",
      "type": "function"
    },
    {
      "inputs": [],
      "name": "name",
      "outputs": [
        {
          "internalType": "string",
          "name": "",
          "type": "string"
        }
      ],
      "stateMutability": "view",
      "type": "function"
    },
    {
      "inputs": [],
      "name": "owner",
      "outputs": [
        {
          "internalType": "address",
          "name": "",
          "type": "address"
        }
      ],
      "stateMutability": "view",
      "type": "function"
    },
    {
      "inputs": [
        {
          "internalType": "uint256",
          "name": "tokenId",
          "type": "uint256"
        }
      ],
      "name": "ownerOf",
      "outputs": [
        {
          "internalType": "address",
          "name": "",
          "type": "address"
        }
      ],
      "stateMutability": "view",
      "type": "function"
    },
    {
      "inputs": [],
      "name": "pause",
      "outputs": [],
      "stateMutability": "nonpayable",
      "type": "function"
    },
    {
      "inputs": [],
      "name": "paused",
      "outputs": [
        {
          "internalType": "bool",
          "name": "",
          "type": "bool"
        }
      ],
      "stateMutability": "view",
      "type": "function"
    },
    {
      "inputs": [],
      "name": "renounceOwnership",
      "outputs": [],
      "stateMutability": "nonpayable",
      "type": "function"
    },
    {
      "inputs": [
        {
          "internalType": "address",
          "name": "to",
          "type": "address"
        },
        {
          "internalType": "string",
          "name": "uri",
          "type": "string"
        }
      ],
      "name": "safeMint",
      "outputs": [],
      "stateMutability": "nonpayable",
      "type": "function"
    },
    {
      "inputs": [
        {
          "internalType": "address",
          "name": "from",
          "type": "address"
        },
        {
          "internalType": "address",
          "name": "to",
          "type": "address"
        },
        {
          "internalType": "uint256",
          "name": "tokenId",
          "type": "uint256"
        }
      ],
      "name": "safeTransferFrom",
      "outputs": [],
      "stateMutability": "nonpayable",
      "type": "function"
    },
    {
      "inputs": [
        {
          "internalType": "address",
          "name": "from",
          "type": "address"
        },
        {
          "internalType": "address",
          "name": "to",
          "type": "address"
        },
        {
          "internalType": "uint256",
          "name": "tokenId",
          "type": "uint256"
        },
        {
          "internalType": "bytes",
          "name": "data",
          "type": "bytes"
        }
      ],
      "name": "safeTransferFrom",
      "outputs": [],
      "stateMutability": "nonpayable",
      "type": "function"
    },
    {
      "inputs": [
        {
          "internalType": "address",
          "name": "operator",
          "type": "address"
        },
        {
          "internalType": "bool",
          "name": "approved",
          "type": "bool"
        }
      ],
      "name": "setApprovalForAll",
      "outputs": [],
      "stateMutability": "nonpayable",
      "type": "function"
    },
    {
      "inputs": [
        {
          "internalType": "bytes4",
          "name": "interfaceId",
          "type": "bytes4"
        }
      ],
      "name": "supportsInterface",
      "outputs": [
        {
          "internalType": "bool",
          "name": "",
          "type": "bool"
        }
      ],
      "stateMutability": "view",
      "type": "function"
    },
    {
      "inputs": [],
      "name": "symbol",
      "outputs": [
        {
          "internalType": "string",
          "name": "",
          "type": "string"
        }
      ],
      "stateMutability": "view",
      "type": "function"
    },
    {
      "inputs": [
        {
          "internalType": "uint256",
          "name": "index",
          "type": "uint256"
        }
      ],
      "name": "tokenByIndex",
      "outputs": [
        {
          "internalType": "uint256",
          "name": "",
          "type": "uint256"
        }
      ],
      "stateMutability": "view",
      "type": "function"
    },
    {
      "inputs": [
        {
          "internalType": "address",
          "name": "owner",
          "type": "address"
        },
        {
          "internalType": "uint256",
          "name": "index",
          "type": "uint256"
        }
      ],
      "name": "tokenOfOwnerByIndex",
      "outputs": [
        {
          "internalType": "uint256",
          "name": "",
          "type": "uint256"
        }
      ],
      "stateMutability": "view",
      "type": "function"
    },
    {
      "inputs": [
        {
          "internalType": "uint256",
          "name": "tokenId",
          "type": "uint256"
        }
      ],
      "name": "tokenURI",
      "outputs": [
        {
          "internalType": "string",
          "name": "",
          "type": "string"
        }
      ],
      "stateMutability": "view",
      "type": "function"
    },
    {
      "inputs": [],
      "name": "totalSupply",
      "outputs": [
        {
          "internalType": "uint256",
          "name": "",
          "type": "uint256"
        }
      ],
      "stateMutability": "view",
      "type": "function"
    },
    {
      "inputs": [
        {
          "internalType": "address",
          "name": "from",
          "type": "address"
        },
        {
          "internalType": "address",
          "name": "to",
          "type": "address"
        },
        {
          "internalType": "uint256",
          "name": "tokenId",
          "type": "uint256"
        }
      ],
      "name": "transferFrom",
      "outputs": [],
      "stateMutability": "nonpayable",
      "type": "function"
    },
    {
      "inputs": [
        {
          "internalType": "address",
          "name": "newOwner",
          "type": "address"
        }
      ],
      "name": "transferOwnership",
      "outputs": [],
      "stateMutability": "nonpayable",
      "type": "function"
    },
    {
      "inputs": [],
      "name": "unpause",
      "outputs": [],
      "stateMutability": "nonpayable",
      "type": "function"
    }
  ],
  "bytecode": "0x60806040523480156200001157600080fd5b50604080518082018252600a81526911985c985dd85e53919560b21b60208083019182528351808501909452600384526246544b60e81b9084015281519192916200005f916000916200015c565b508051620000759060019060208401906200015c565b5050600b805460ff19169055506200008d3362000102565b60408051308152606060208201819052600a908201526911985c985dd85e53919560b21b608082015260a08183018190526003908201526246544b60e81b60c082015290517f3454b57f2dca4f5a54e8358d096ac9d1a0d2dab98991ddb89ff9ea17462606179181900360e00190a16200023f565b600b80546001600160a01b03838116610100818102610100600160a81b031985161790945560405193909204169182907f8be0079c531659141344cd1fd0a4f28419497f9722a3daafe3b4186f6b6457e090600090a35050565b8280546200016a9062000202565b90600052602060002090601f0160209004810192826200018e5760008555620001d9565b82601f10620001a957805160ff1916838001178555620001d9565b82800160010185558215620001d9579182015b82811115620001d9578251825591602001919060010190620001bc565b50620001e7929150620001eb565b5090565b5b80821115620001e75760008155600101620001ec565b600181811c908216806200021757607f821691505b602082108114156200023957634e487b7160e01b600052602260045260246000fd5b50919050565b612071806200024f6000396000f3fe608060405234801561001057600080fd5b50600436106101585760003560e01c80636352211e116100c3578063a22cb4651161007c578063a22cb465146102b2578063b88d4fde146102c5578063c87b56dd146102d8578063d204c45e146102eb578063e985e9c5146102fe578063f2fde38b1461033a57600080fd5b80636352211e1461025e57806370a0823114610271578063715018a6146102845780638456cb591461028c5780638da5cb5b1461029457806395d89b41146102aa57600080fd5b80632f745c59116101155780632f745c59146101ff5780633f4ba83a1461021257806342842e0e1461021a57806342966c681461022d5780634f6ccce7146102405780635c975abb1461025357600080fd5b806301ffc9a71461015d57806306fdde0314610185578063081812fc1461019a578063095ea7b3146101c557806318160ddd146101da57806323b872dd146101ec575b600080fd5b61017061016b366004611b0b565b61034d565b60405190151581526020015b60405180910390f35b61018d61035e565b60405161017c9190611b80565b6101ad6101a8366004611b93565b6103f0565b6040516001600160a01b03909116815260200161017c565b6101d86101d3366004611bc8565b610417565b005b6008545b60405190815260200161017c565b6101d86101fa366004611bf2565b610532565b6101de61020d366004611bc8565b610564565b6101d86105fa565b6101d8610228366004611bf2565b61060c565b6101d861023b366004611b93565b610627565b6101de61024e366004611b93565b610658565b600b5460ff16610170565b6101ad61026c366004611b93565b6106eb565b6101de61027f366004611c2e565b61074b565b6101d86107d1565b6101d86107e3565b600b5461010090046001600160a01b03166101ad565b61018d6107f3565b6101d86102c0366004611c49565b610802565b6101d86102d3366004611d11565b610811565b61018d6102e6366004611b93565b610849565b6101d86102f9366004611d8d565b610854565b61017061030c366004611def565b6001600160a01b03918216600090815260056020908152604080832093909416825291909152205460ff1690565b6101d8610348366004611c2e565b6108d5565b60006103588261094b565b92915050565b60606000805461036d90611e22565b80601f016020809104026020016040519081016040528092919081815260200182805461039990611e22565b80156103e65780601f106103bb576101008083540402835291602001916103e6565b820191906000526020600020905b8154815290600101906020018083116103c957829003601f168201915b5050505050905090565b60006103fb82610970565b506000908152600460205260409020546001600160a01b031690565b6000610422826106eb565b9050806001600160a01b0316836001600160a01b031614156104955760405162461bcd60e51b815260206004820152602160248201527f4552433732313a20617070726f76616c20746f2063757272656e74206f776e656044820152603960f91b60648201526084015b60405180910390fd5b336001600160a01b03821614806104b157506104b1813361030c565b6105235760405162461bcd60e51b815260206004820152603d60248201527f4552433732313a20617070726f76652063616c6c6572206973206e6f7420746f60448201527f6b656e206f776e6572206f7220617070726f76656420666f7220616c6c000000606482015260840161048c565b61052d83836109cf565b505050565b61053d335b82610a3d565b6105595760405162461bcd60e51b815260040161048c90611e5d565b61052d838383610abc565b600061056f8361074b565b82106105d15760405162461bcd60e51b815260206004820152602b60248201527f455243373231456e756d657261626c653a206f776e657220696e646578206f7560448201526a74206f6620626f756e647360a81b606482015260840161048c565b506001600160a01b03919091166000908152600660209081526040808320938352929052205490565b610602610c2d565b61060a610c8d565b565b61052d83838360405180602001604052806000815250610811565b61063033610537565b61064c5760405162461bcd60e51b815260040161048c90611e5d565b61065581610cdf565b50565b600061066360085490565b82106106c65760405162461bcd60e51b815260206004820152602c60248201527f455243373231456e756d657261626c653a20676c6f62616c20696e646578206f60448201526b7574206f6620626f756e647360a01b606482015260840161048c565b600882815481106106d9576106d9611eaa565b90600052602060002001549050919050565b6000818152600260205260408120546001600160a01b0316806103585760405162461bcd60e51b8152602060048201526018602482015277115490cdcc8c4e881a5b9d985b1a59081d1bdad95b88125160421b604482015260640161048c565b60006001600160a01b0382166107b55760405162461bcd60e51b815260206004820152602960248201527f4552433732313a2061646472657373207a65726f206973206e6f7420612076616044820152683634b21037bbb732b960b91b606482015260840161048c565b506001600160a01b031660009081526003602052604090205490565b6107d9610c2d565b61060a6000610ce8565b6107eb610c2d565b61060a610d42565b60606001805461036d90611e22565b61080d338383610d7f565b5050565b61081b3383610a3d565b6108375760405162461bcd60e51b815260040161048c90611e5d565b61084384848484610e4e565b50505050565b606061035882610e81565b61085c610c2d565b610864610f8a565b600061086f600c5490565b905061087f600c80546001019055565b6108898382610fd0565b6108938183610fea565b7fc9fee7cd4889f66f10ff8117316524260a5242e88e25e0656dfb3f4196a21917308483856040516108c89493929190611ec0565b60405180910390a1505050565b6108dd610c2d565b6001600160a01b0381166109425760405162461bcd60e51b815260206004820152602660248201527f4f776e61626c653a206e6577206f776e657220697320746865207a65726f206160448201526564647265737360d01b606482015260840161048c565b61065581610ce8565b60006001600160e01b0319821663780e9d6360e01b1480610358575061035882611084565b6000818152600260205260409020546001600160a01b03166106555760405162461bcd60e51b8152602060048201526018602482015277115490cdcc8c4e881a5b9d985b1a59081d1bdad95b88125160421b604482015260640161048c565b600081815260046020526040902080546001600160a01b0319166001600160a01b0384169081179091558190610a04826106eb565b6001600160a01b03167f8c5be1e5ebec7d5bd14f71427d1e84f3dd0314c0f7b2291e5b200ac8c7c3b92560405160405180910390a45050565b600080610a49836106eb565b9050806001600160a01b0316846001600160a01b03161480610a9057506001600160a01b0380821660009081526005602090815260408083209388168352929052205460ff165b80610ab45750836001600160a01b0316610aa9846103f0565b6001600160a01b0316145b949350505050565b826001600160a01b0316610acf826106eb565b6001600160a01b031614610af55760405162461bcd60e51b815260040161048c90611efd565b6001600160a01b038216610b575760405162461bcd60e51b8152602060048201526024808201527f4552433732313a207472616e7366657220746f20746865207a65726f206164646044820152637265737360e01b606482015260840161048c565b610b6483838360016110d4565b826001600160a01b0316610b77826106eb565b6001600160a01b031614610b9d5760405162461bcd60e51b815260040161048c90611efd565b600081815260046020908152604080832080546001600160a01b03199081169091556001600160a01b0387811680865260038552838620805460001901905590871680865283862080546001019055868652600290945282852080549092168417909155905184937fddf252ad1be2c89b69c2b068fc378daa952ba7f163c4a11628f55a4df523b3ef91a4505050565b600b546001600160a01b0361010090910416331461060a5760405162461bcd60e51b815260206004820181905260248201527f4f776e61626c653a2063616c6c6572206973206e6f7420746865206f776e6572604482015260640161048c565b610c956110e0565b600b805460ff191690557f5db9ee0a495bf2e6ff9c91a7834c1ba4fdd244a5e8aa4e537bd38aeae4b073aa335b6040516001600160a01b03909116815260200160405180910390a1565b61065581611129565b600b80546001600160a01b03838116610100818102610100600160a81b031985161790945560405193909204169182907f8be0079c531659141344cd1fd0a4f28419497f9722a3daafe3b4186f6b6457e090600090a35050565b610d4a610f8a565b600b805460ff191660011790557f62e78cea01bee320cd4e420270b5ea74000d11b0c9f74754ebdbfc544b05a258610cc23390565b816001600160a01b0316836001600160a01b03161415610de15760405162461bcd60e51b815260206004820152601960248201527f4552433732313a20617070726f766520746f2063616c6c657200000000000000604482015260640161048c565b6001600160a01b03838116600081815260056020908152604080832094871680845294825291829020805460ff191686151590811790915591519182527f17307eab39ab6107e8899845ad3d59bd9653f200f220920489ca2b5937696c31910160405180910390a3505050565b610e59848484610abc565b610e6584848484611169565b6108435760405162461bcd60e51b815260040161048c90611f42565b6060610e8c82610970565b6000828152600a602052604081208054610ea590611e22565b80601f0160208091040260200160405190810160405280929190818152602001828054610ed190611e22565b8015610f1e5780601f10610ef357610100808354040283529160200191610f1e565b820191906000526020600020905b815481529060010190602001808311610f0157829003601f168201915b505050505090506000610f3c60408051602081019091526000815290565b9050805160001415610f4f575092915050565b815115610f81578082604051602001610f69929190611f94565b60405160208183030381529060405292505050919050565b610ab484611276565b600b5460ff161561060a5760405162461bcd60e51b815260206004820152601060248201526f14185d5cd8589b194e881c185d5cd95960821b604482015260640161048c565b61080d8282604051806020016040528060008152506112ea565b6000828152600260205260409020546001600160a01b03166110655760405162461bcd60e51b815260206004820152602e60248201527f45524337323155524953746f726167653a2055524920736574206f66206e6f6e60448201526d32bc34b9ba32b73a103a37b5b2b760911b606482015260840161048c565b6000828152600a60209081526040909120825161052d92840190611a26565b60006001600160e01b031982166380ac58cd60e01b14806110b557506001600160e01b03198216635b5e139f60e01b145b8061035857506301ffc9a760e01b6001600160e01b0319831614610358565b6108438484848461131d565b600b5460ff1661060a5760405162461bcd60e51b815260206004820152601460248201527314185d5cd8589b194e881b9bdd081c185d5cd95960621b604482015260640161048c565b6111328161145d565b6000818152600a60205260409020805461114b90611e22565b159050610655576000818152600a6020526040812061065591611aaa565b60006001600160a01b0384163b1561126b57604051630a85bd0160e11b81526001600160a01b0385169063150b7a02906111ad903390899088908890600401611ec0565b602060405180830381600087803b1580156111c757600080fd5b505af19250505080156111f7575060408051601f3d908101601f191682019092526111f491810190611fc3565b60015b611251573d808015611225576040519150601f19603f3d011682016040523d82523d6000602084013e61122a565b606091505b5080516112495760405162461bcd60e51b815260040161048c90611f42565b805181602001fd5b6001600160e01b031916630a85bd0160e11b149050610ab4565b506001949350505050565b606061128182610970565b600061129860408051602081019091526000815290565b905060008151116112b857604051806020016040528060008152506112e3565b806112c284611500565b6040516020016112d3929190611f94565b6040516020818303038152906040525b9392505050565b6112f4838361159d565b6113016000848484611169565b61052d5760405162461bcd60e51b815260040161048c90611f42565b61132984848484611736565b60018111156113985760405162461bcd60e51b815260206004820152603560248201527f455243373231456e756d657261626c653a20636f6e7365637574697665207472604482015274185b9cd9995c9cc81b9bdd081cdd5c1c1bdc9d1959605a1b606482015260840161048c565b816001600160a01b0385166113f4576113ef81600880546000838152600960205260408120829055600182018355919091527ff3f7a9fe364faab93b216da50a3214154f22a0a2b415b23a84c8169e8b636ee30155565b611417565b836001600160a01b0316856001600160a01b0316146114175761141785826117be565b6001600160a01b0384166114335761142e8161185b565b611456565b846001600160a01b0316846001600160a01b03161461145657611456848261190a565b5050505050565b6000611468826106eb565b90506114788160008460016110d4565b611481826106eb565b600083815260046020908152604080832080546001600160a01b03199081169091556001600160a01b0385168085526003845282852080546000190190558785526002909352818420805490911690555192935084927fddf252ad1be2c89b69c2b068fc378daa952ba7f163c4a11628f55a4df523b3ef908390a45050565b6060600061150d8361194e565b600101905060008167ffffffffffffffff81111561152d5761152d611c85565b6040519080825280601f01601f191660200182016040528015611557576020820181803683370190505b5090508181016020015b600019016f181899199a1a9b1b9c1cb0b131b232b360811b600a86061a8153600a850494508461159057611595565b611561565b509392505050565b6001600160a01b0382166115f35760405162461bcd60e51b815260206004820181905260248201527f4552433732313a206d696e7420746f20746865207a65726f2061646472657373604482015260640161048c565b6000818152600260205260409020546001600160a01b0316156116585760405162461bcd60e51b815260206004820152601c60248201527f4552433732313a20746f6b656e20616c7265616479206d696e74656400000000604482015260640161048c565b6116666000838360016110d4565b6000818152600260205260409020546001600160a01b0316156116cb5760405162461bcd60e51b815260206004820152601c60248201527f4552433732313a20746f6b656e20616c7265616479206d696e74656400000000604482015260640161048c565b6001600160a01b038216600081815260036020908152604080832080546001019055848352600290915280822080546001600160a01b0319168417905551839291907fddf252ad1be2c89b69c2b068fc378daa952ba7f163c4a11628f55a4df523b3ef908290a45050565b6001811115610843576001600160a01b0384161561177c576001600160a01b03841660009081526003602052604081208054839290611776908490611ff6565b90915550505b6001600160a01b03831615610843576001600160a01b038316600090815260036020526040812080548392906117b390849061200d565b909155505050505050565b600060016117cb8461074b565b6117d59190611ff6565b600083815260076020526040902054909150808214611828576001600160a01b03841660009081526006602090815260408083208584528252808320548484528184208190558352600790915290208190555b5060009182526007602090815260408084208490556001600160a01b039094168352600681528383209183525290812055565b60085460009061186d90600190611ff6565b6000838152600960205260408120546008805493945090928490811061189557611895611eaa565b9060005260206000200154905080600883815481106118b6576118b6611eaa565b60009182526020808320909101929092558281526009909152604080822084905585825281205560088054806118ee576118ee612025565b6001900381819060005260206000200160009055905550505050565b60006119158361074b565b6001600160a01b039093166000908152600660209081526040808320868452825280832085905593825260079052919091209190915550565b60008072184f03e93ff9f4daa797ed6e38ed64bf6a1f0160401b831061198d5772184f03e93ff9f4daa797ed6e38ed64bf6a1f0160401b830492506040015b6d04ee2d6d415b85acef810000000083106119b9576d04ee2d6d415b85acef8100000000830492506020015b662386f26fc1000083106119d757662386f26fc10000830492506010015b6305f5e10083106119ef576305f5e100830492506008015b6127108310611a0357612710830492506004015b60648310611a15576064830492506002015b600a83106103585760010192915050565b828054611a3290611e22565b90600052602060002090601f016020900481019282611a545760008555611a9a565b82601f10611a6d57805160ff1916838001178555611a9a565b82800160010185558215611a9a579182015b82811115611a9a578251825591602001919060010190611a7f565b50611aa6929150611ae0565b5090565b508054611ab690611e22565b6000825580601f10611ac6575050565b601f01602090049060005260206000209081019061065591905b5b80821115611aa65760008155600101611ae1565b6001600160e01b03198116811461065557600080fd5b600060208284031215611b1d57600080fd5b81356112e381611af5565b60005b83811015611b43578181015183820152602001611b2b565b838111156108435750506000910152565b60008151808452611b6c816020860160208601611b28565b601f01601f19169290920160200192915050565b6020815260006112e36020830184611b54565b600060208284031215611ba557600080fd5b5035919050565b80356001600160a01b0381168114611bc357600080fd5b919050565b60008060408385031215611bdb57600080fd5b611be483611bac565b946020939093013593505050565b600080600060608486031215611c0757600080fd5b611c1084611bac565b9250611c1e60208501611bac565b9150604084013590509250925092565b600060208284031215611c4057600080fd5b6112e382611bac565b60008060408385031215611c5c57600080fd5b611c6583611bac565b915060208301358015158114611c7a57600080fd5b809150509250929050565b634e487b7160e01b600052604160045260246000fd5b600067ffffffffffffffff80841115611cb657611cb6611c85565b604051601f8501601f19908116603f01168101908282118183101715611cde57611cde611c85565b81604052809350858152868686011115611cf757600080fd5b858560208301376000602087830101525050509392505050565b60008060008060808587031215611d2757600080fd5b611d3085611bac565b9350611d3e60208601611bac565b925060408501359150606085013567ffffffffffffffff811115611d6157600080fd5b8501601f81018713611d7257600080fd5b611d8187823560208401611c9b565b91505092959194509250565b60008060408385031215611da057600080fd5b611da983611bac565b9150602083013567ffffffffffffffff811115611dc557600080fd5b8301601f81018513611dd657600080fd5b611de585823560208401611c9b565b9150509250929050565b60008060408385031215611e0257600080fd5b611e0b83611bac565b9150611e1960208401611bac565b90509250929050565b600181811c90821680611e3657607f821691505b60208210811415611e5757634e487b7160e01b600052602260045260246000fd5b50919050565b6020808252602d908201527f4552433732313a2063616c6c6572206973206e6f7420746f6b656e206f776e6560408201526c1c881bdc88185c1c1c9bdd9959609a1b606082015260800190565b634e487b7160e01b600052603260045260246000fd5b6001600160a01b0385811682528416602082015260408101839052608060608201819052600090611ef390830184611b54565b9695505050505050565b60208082526025908201527f4552433732313a207472616e736665722066726f6d20696e636f72726563742060408201526437bbb732b960d91b606082015260800190565b60208082526032908201527f4552433732313a207472616e7366657220746f206e6f6e20455243373231526560408201527131b2b4bb32b91034b6b83632b6b2b73a32b960711b606082015260800190565b60008351611fa6818460208801611b28565b835190830190611fba818360208801611b28565b01949350505050565b600060208284031215611fd557600080fd5b81516112e381611af5565b634e487b7160e01b600052601160045260246000fd5b60008282101561200857612008611fe0565b500390565b6000821982111561202057612020611fe0565b500190565b634e487b7160e01b600052603160045260246000fdfea2646970667358221220c21bbaeab73ed931c320979ba0bcc119b65be609a6a2e616d2e209d3c96d459f64736f6c63430008090033",
  "linkReferences": {},
  "deployedLinkReferences": {}
}